:020000040800F2
:100000000804002005010008AB020008A302000854
:10001000A70200084D010008C1040008000000000C
:10002000000000000000000000000000D1020008F5
:100030005101000800000000AD0200085D04000846
:100040001F0100081F0100081F0100081F01000810
:100050001F0100081F0100081F0100081F01000800
:100060001F0100081F0100081F0100081F010008F0
:100070001F0100081F0100081F0100081F010008E0
:100080001F0100081F0100081F0100081F010008D0
:100090001F0100081F0100081F0100081F010008C0
:1000A0001F0100081F0100081F0100081F010008B0
:1000B0001F0100081F0100081F0100081F010008A0
:1000C0001F0100081F0100081F0100081F01000890
:1000D0001F0100081F0100081F0100081F01000880
:1000E0001F0100081F0100081F010008DFF810D0E1
:1000F00000F01AF800480047E5040008AFF300805C
:10010000080400200648804706480047FEE7FEE74F
:10011000FEE7FEE7FEE7FEE7FEE7FEE7FEE7FEE7B7
:1001200061040008ED000008064C074D06E0E06899
:1001300040F0010394E8070098471034AC42F6D32E
:10014000FFF7D8FF100500083005000800BFFEE7E4
:100150007047014606E0002001E000BF401CB0F5FA
:10016000FA5FFAD30A1EA1F10101F4D170470146EA
:1001700005E0002001E000BF401C0828FBD30A1E58
:10018000A1F10101F5D170472DE9F04102460025AA
:100190000026002000230024002791F803C00CF063
:1001A0000F0591F803C00CF0100CBCF1000F03D048
:1001B00091F802C04CEA050591F800C0BCF1000FAF
:1001C00031D0146800202BE04FF0010C0CFA00F342
:1001D000B1F800C00CEA03069E4220D183004FF024
:1001E0000F0C0CFA03F7BC4305FA03FC4CEA0404B9
:1001F00091F803C0BCF1280F06D14FF0010C0CFAA6
:1002000000FCC2F814C00AE091F803C0BCF1480F2A
:1002100005D14FF0010C0CFA00FCC2F810C0401CD4
:100220000828D1D31460B1F800C0BCF1FF0F34DD51
:10023000546800202EE000F1080C4FF0010808FA85
:100240000CF3B1F800C00CEA03069E4221D18300F2
:100250004FF00F0C0CFA03F7BC4305FA03FC4CEA11
:10026000040491F803C0BCF1280F05D100F1080C7B
:1002700008FA0CF8C2F8148091F803C0BCF1480FDA
:1002800007D100F1080C4FF0010808FA0CF8C2F889
:100290001080401C0828CED35460BDE8F081416135
:1002A000704700BFFEE700BFFEE7704770470000E1
:1002B00029B1064A92690243044B9A6104E0034A59
:1002C00092698243014B9A6170470000001002401E
:1002D000704710B500F002F810BD00000CB500200A
:1002E000019000903348006840F480303149086044
:1002F00000BF3048006800F4003000900198401CB6
:100300000190009818B90198B0F5A06FF1D1294873
:10031000006800F4003010B10120009001E00020DE
:1003200000900098012843D12348006840F0100055
:10033000214908600846006820F00300086008466C
:10034000006840F0020008601A4840681949486097
:100350000846406848600846406840F4806048604D
:100360000846406820F47C1048600846406840F425
:10037000E81048600846006840F08070086000BFE0
:100380000C48006800F000700028F9D00948406867
:1003900020F00300074948600846406840F002002A
:1003A000486000BF0348406800F00C000828F9D1FD
:1003B0000CBD0000001002400020024008B50121E1
:1003C0000420FFF775FF10208DF803000F20ADF813
:1003D000000003208DF8020069460448FFF7D4FEB0
:1003E0000F210248FFF75BFF08BD00000008014035
:1003F00070B50446002C01DB012001E04FF0FF3016
:100400000546002C01DB204600E06042064615E070
:100410000F480078284400F007000D4908700D4887
:10042000006820F00F000C49094A1278895C0843E3
:100430000849086040F2DC50FFF799FE301EA6F133
:100440000106E5D10F2103480C38FFF728FF70BDE6
:10045000000000200C08014008050008704700005B
:1004600010B51348006840F00100114908600846C3
:100470004068104908400E494860084600680E4927
:1004800008400B4908600846006820F48020086096
:100490000846406820F4FE0048604FF41F00886062
:1004A000FFF717FF4FF000600449086010BD00001F
:1004B000001002400000FFF8FFFFF6FE08ED00E02C
:1004C00000BFFEE702E008C8121F08C1002AFAD1E7
:1004D00070477047002001E001C1121F002AFBD1C4
:1004E00070470000FFF76AFF4FF48050FFF780FF6E
:1004F0004FF4FA70FFF72DFE0248FFF779FF00BFB7
:10050000FEE7000000F8FFFF01030206040C0809E3
:10051000300500080000002004000000C4040008AA
:10052000340500080400002004040000D40400087E
:0405300000000000C7
:04000005080000ED02
:00000001FF
